:100000000C9498010C94B5010C94B5010C94B501B5
:100010000C94B5010C94B5010C94B5010C94B50188
:100020000C94B5010C94B5010C943C120C947E1107
:100030000C947D140C94B5010C94B5010C94B5018D
:100040000C94B5010C94B5010C94B5010C94B50158
:100050000C94B5010C943C140C94B5010C94B501AE
:100060000C94B5010C94B5010C94B5010C94B50138
:100070000C94B5010C94B5010C94B5010C94B50128
:100080000C94B5010C94B5010C94B5010C94B50118
:100090000C94B5010C94B5010C94B5010C94B50108
:1000A0000C94B5010C94B5010C94B50198029D0215
:1000B000A7029B02A002A502A302550455048804CE
:1000C0008804F30410061006100611058505960530
:1000D000960577077A077D078007830786078907D4
:1000E000960FBD0F6611BD0F661109102C10661119
:1000F00021113111571768173217C117B117BF17E0
:10010000BF17BD17BF1735002B00E000E1005100FD
:1001100000001E00140004001D00520029001F00F2
:100120001A0016001B000100E20020000800070072
:1001300006002F00E300210015000900190030001F
:10014000A800220017000A0005000000AA00010014
:10015000010000004E000000A900010001000000A5
:100160004B000000AC0023001C000B00110000003D
:10017000AB00240018000D0010005000AE00250058
:100180000C000E0036004F002C00260012000F005D
:10019000370051002A0027001300330038005200B6
:1001A00029002E002D002800340031000000050138
:1001B0000980A101850319012AB700150126B7009E
:1001C000950175108100C0050C0901A10185041974
:1001D000012AA002150126A002950175108100C018
:1001E00005010906A1018506050719E029E71500A3
:1001F00025019508750181020507190029EF1500F1
:10020000250195F07501810205081901290595055B
:1002100075019102950175039101C00660FF0961A6
:10022000A1010962150026FF0095207508810209C9
:1002300063150026FF00952075089102C00501098D
:1002400006A101050719E029E715002501950875A4
:100250000181029501750881010507190029FF1523
:100260000026FF009506750881000508190129057B
:10027000950575019102950175039101C009025B15
:1002800000030100A0FA09040000010301010009B4
:100290002111010001224000070581030800010926
:1002A00004010002030000000921110100012222C3
:1002B0000007058203200001070503032000010950
:1002C0000402000103000000092111010001226D58
:1002D000000705840320000112010002000000084D
:1002E00097327449010001020001160345007200B3
:1002F00067006F0044006F007800200045005A003E
:10030000000028035A0053004100200054006500FB
:10031000630068006E006F006C006F00670079007A
:1003200020004C0061006200730000000403090417
:1003300011241FBECFEFDAE0DEBFCDBF11E0A0E099
:10034000B1E0E6EFFAE302C005900D92A636B107E0
:10035000D9F722E0A6E6B1E001C01D92A839B207A4
:10036000E1F70E9407150C94791D0C94000010927F
:10037000F0010E940E192FEF84E39CE02150804091
:100380009040E1F700C000009AE088E10FB6F894D1
:10039000A895809360000FBE90936000FFCFA7E107
:1003A000B0E0E5EDF1E00C94F21A4B8B5C8B6D8BB9
:1003B0007E8B8F8B61111092E30186E09E01235F9B
:1003C0003F4FD901E82F1D92EA95E9F795E0FE012C
:1003D0007396D90101900D929A95E1F79C894E8907
:1003E0005F897B897D879E876F87598B488BF90151
:1003F000DE01179601900D928A95E1F7CE010796DE
:100400000E94490B81113EC086E0FE013796DE0155
:10041000119601900D928A95E1F7FF81E8856A8532
:100420007B856115710531F0EF3F31F481E0FF3FCD
:1004300019F403C081E001C080E080FD23C0209159
:10044000900130E0C9010196877099274091C10160
:1004500050E08417950779F1F983EA837D836C83F3
:1004600096E0929FD001939FB00D1124AF56BE4FDE
:10047000FE01319601900D929A95E1F780939001DB
:100480000E94D60A16E08091C101909190018917CF
:1004900009F1189FC00111248F569E4F0E94490BED
:1004A0008823C1F08091C10190E00196877099275F
:1004B0008093C101E8CF1092F0010E940E191092B2
:1004C00090011092C101EAE8F1E086E0DF011D929F
:1004D0008A95E9F76796E3E00C940E1B982F9295A6
:1004E0009F7019F0892F24E001C020E0982F969585
:1004F000969511F02E5F892F982F969509F02F5F12
:10050000822F0895CF93C82F0E946E0256985E984E
:1005100025982D9826982E9827982F9890E0FC01E2
:100520003197E730F105A8F4EA5AFF4F0C94451CC7
:10053000259A2D9A0EC0259A2D9A269A2E9A09C090
:10054000259A2D9A04C0259A2D9A269A2E9A279A92
:100550002F9A8C2FCF910895A5E2B0E0E2EBF2E064
:100560000C94EA1AFC018081918123813481232B30
:1005700031F09F3F31F491E08F3F19F403C091E0D7
:1005800001C090E090FD8AC37F0185E0DE01919675
:1005900001900D928A95E1F7D70112962C9189A1CD
:1005A0009AA1222349F00E94EA17182F682F89A1E7
:1005B0009AA10E945A1803C00E942618182F69A1F8
:1005C0007AA1812F0E9425088C0190911E02F701CB
:1005D0008281992309F44DC0811151C3E0916901D1
:1005E000E330A0F481E08E0F80936901F0E0EE0F1C
:1005F000FF1FE95AFD4FD7018D919C919183808314
:1006000082E08983CE0101960E947013BFEFE3ED73
:10061000F0E3B150E040F040E1F700C0000080910D
:100620006901833009F02BC310926901EDE5F2E016
:10063000A7E5B2E083E692E0318111962C91119703
:1006400032132EC030812C9132132AC0329612966A
:100650008E179F0789F784E0898381E080931F02CA
:100660008EEF8A8310921E02CE0101960E947013B3
:1006700006C390911F029923C1F0811102C087E047
:1006800001C086E08983D7018C918A8311968C9171
:100690008B838EEF8C83CE0101960E94701305C070
:1006A00083E0898310921F02DBCF033BBDE51B076C
:1006B000D1F5F70182818823B1F19091240281E084
:1006C000890F8770987F853020F4892B80932402CE
:1006D00002C090932402809124028770FFEF8F9FC5
:1006E000C0011124959587959595879599279093A5
:1006F00089008093880090938B0080938A00909368
:100700008D0080938C0040912402509125026091CD
:100710002602709127028FE090E00E94BC1B80911E
:1007200036020E948202F7018281882309F46BC09D
:100730000C352DE5120709F461C058F401159CE54C
:10074000190799F00F3D1C4509F05DC00E94C509CD
:100750004BC00E35BDE51B0709F448C008F450C076
:10076000093A1D4509F440C04EC01092F0010E94A4
:100770000E192FEF84E39CE0215080409040E1F778
:1007800000C00000F89481E08093E00080E2809354
:10079000D8001092C900AFE1BEE41197F1F700C094
:1007A00000001DBA109268001CBC10BE1FBA109247
:1007B0007A0010926E0010926F00109271001092E9
:1007C00072001092C9001092BC0014B817B81AB881
:1007D0001DB810BA1092BC0015B818B81BB81EB8D6
:1007E00011BA0C94003F4BC20E94B70180916F0276
:1007F00082FB882780F991E0892703C081E001C04E
:1008000080E00E94BA0AD70112968C9112970D913E
:100810001C91882349F0C8010E94EA17D82E682F3E
:10082000C8010E945A1804C0C8010E942618D82E78
:10083000B8018D2D0E9425080E943E08B82E192F60
:10084000982ED70112960C9112971596AC90A294FF
:100850009FE0A9228091C2018770B9F00023A9F01E
:10086000812F807F803421F080E28B0D883068F00A
:1008700080916F0282FF09C082E00E949D0A8091F0
:10088000C2018770DD24D3948111D12CC12EC29472
:100890008FE0C8228C2D90E08C30910508F0C0C10B
:1008A000FC01E35AFF4F0C94451C812F807F1F7081
:1008B000882311F01295107F0023B9F0112309F459
:1008C0009DC180E28B0D883010F0911006C08091A0
:1008D000F001182B1093F00105C08091E301182B53
:1008E0001093E3010E94480A89C18B2D0E9433199D
:1008F000112309F495C180E28B0D883080F1992095
:1009000071F110958091E30118231093E3012AC03F
:10091000812F807F1F70803211F01295107F8B2DF8
:10092000992021F0B1E09B16D9F147C080916F0268
:1009300082FD1BC0002369F0112339F08091F00182
:10094000182B1093F0010E94480A80E00E945F1962
:1009500067C180E00E943319112309F461C1812F1E
:100960000E94410A0E94480A5BC1002381F08091E5
:10097000E401AA2051F0E1E0AE1207C0182B1817CD
:1009800009F44EC11093E4014BC1812B10C0AA2081
:1009900021F0F1E0AF1609F443C10E943B0A1FC0E9
:1009A000002341F021E02A1508F43AC1812F0E946A
:1009B000291936C1A11034C112C0002319F0AA2090
:1009C000A9F31CC1AA2059F0893309F026C18FEF81
:1009D00097EEA3E081509040A040E1F71CC1812F29
:1009E0000E9422191DC1812F86958695837019F06A
:1009F000813061F015C1002321F08B2D912F937070
:100A000002C080E090E00E94E41410C1002321F0B5
:100A10008B2D912F937002C080E090E00E94CE1445
:100A200005C1812F8370A9F50111FEC04B2D4295A0
:100A300046954770440F440F8B2D8F7090E09C01BA
:100A4000042E01C0220F0A94EAF7B4FE08C08FE01A
:100A500090E001C0880F4A95EAF7809501C080E0D8
:100A6000169516951370123069F088F49091E5018F
:100A7000113019F0822B892302C0922B892B0E94FE
:100A8000D218D2C0822B9091E5018927F8CF822B12
:100A9000F6CF002319F0812F817001C0869588233D
:100AA00009F4C2C04B2D429546954770440F440F40
:100AB0008B2D8F7090E09C01042E01C0220F0A94B0
:100AC000EAF7B4FE08C08FE090E001C0880F4A95B5
:100AD000EAF7809501C080E01695169513701230E4
:100AE00059F078F490913602113019F0822B892355
:100AF00009C0922B892B06C0822B90913602892740
:100B000001C0822B0E948F188FC01F70002339F004
:100B1000812F0E94C6188B2D0E94291985C08B2D0C
:100B20000E942219812F0E94B9187EC08B2DB2EF2E
:100B30009B1669F1B91538F0E0EF9E1659F0F1EF08
:100B40009F1601F157C023EF921641F194EF9916C9
:100B5000A9F050C0002369F0A11062C01F7181E0AC
:100B600090E001C0880F1A95EAF790913602892724
:100B70001FC0A1E0AA1508F453C0F0CF80916F0206
:100B800082FD19C0002329F0812F8F7126C0002318
:100B9000D9F3812F8F710E94B91842C0002339F018
:100BA0001F7181E001C0880F1A95EAF701C080E04B
:100BB0000E948F1835C0002399F01F71812F0E9469
:100BC000C61880916F0282FF07C0B8E01B9FC0016A
:100BD000112483608093C201812F0E94C61820C017
:100BE00081E00E949D0AE1E0EA15D0F482E00E94D3
:100BF0009D0A16C0002321F0AA2031F28B2DA6CE2B
:100C0000AA2039F2893349F4FFEF27EE83E0F1504F
:100C100020408040E1F700C000008B2D0E94331976
:100C200088EF8C0D843010F40E94FA14DD20B1F0AE
:100C30008091C20180FD12C0D70112961C92859549
:100C4000859585950E94C618C7010E94AC028091C7
:100C5000C2018595859585950E94B91885E0F701B3
:100C6000DE01119601900D928A95E1F709811A81B2
:100C7000C8010E942618B8010E9425080FC0809163
:100C8000C201877059F0F7018281882339F0809181
:100C90006F0282FF03C082E00E949D0AA596EBE0EE
:100CA0000C94061B80E290E090931801809317014A
:100CB0008091680181110EC00E94FF1981E080932C
:100CC00068012FEF83ED90E3215080409040E1F7E1
:100CD00000C0000060E570E080E40E94051A909377
:100CE000180180931701892B09F04EC060E570E070
:100CF00080E00E94781A9093180180931701892B45
:100D000009F042C060E570E080E00E94781A90939C
:100D1000180180931701892BB9F560E570E08FE326
:100D20000E94781A9093180180931701892B61F51E
:100D30000E94CB1A60E570E080E40E94051A90934F
:100D4000180180931701892BF9F460E570E08CE0BD
:100D50000E94781A9093180180931701892BA1F4AF
:100D600060E570E080E00E94781A9093180180930B
:100D70001701892B49F460E570E08FE30E94781A2F
:100D800090931801809317010E94CB1A809117014C
:100D90000895CF93DF9356985E9825982D982698BE
:100DA0002E9827982F98C8E8D0E08FEF90E099838D
:100DB0008883AAE8B0E011969C938E93ECE8F0E06B
:100DC00091838083259A2D9A2FEF80E792E021501E
:100DD00080409040E1F700C00000269A2E9A2FEF45
:100DE00080E792E0215080409040E1F700C0000091
:100DF000279A2F9A2FEF80E792E021508040904071
:100E0000E1F700C0000025982D982FEF80E792E0D1
:100E1000215080409040E1F700C0000026982E98B5
:100E20002FEF80E792E0215080409040E1F700C032
:100E3000000027982F988091240287702FEF829FBF
:100E4000C001112495958795959587959927998344
:100E5000888311969C938E939183808356985E9895
:100E600025982D9826982E9827982F98DF91CF9126
:100E70000895CF93E82F873080F5809117019091E6
:100E80001801892B09F047C0CE2F60E570E080E49F
:100E90000E94051A9093180180931701892BD1F4B1
:100EA00060E570E082E10E94781A909318018093C7
:100EB0001701892B79F481E090E001C0880FCA9571
:100EC000EAF760E570E080950E94781A9093180127
:100ED000809317010E94CB1A1EC090E0FC01379747
:100EE000E730F105C0F4E759FF4F0C94451C209AF8
:100EF000289811C0219A29980EC0229A2A980BC0CE
:100F0000239A2B9808C0529A5A9805C0539A5B9816
:100F100002C03E9A4698CF9108952098289821982B
:100F2000299822982A9823982B9852985A9853983F
:100F30005B983E9846980895CF93873040F580910E
:100F4000170190911801892B59F560E570E081E453
:100F50000E94051A9093180180931701892B11F0B4
:100F6000C0E011C080E590E00E94A71A97FF05C07D
:100F70009093180180931701F3CFC82FC09510925A
:100F80001801109217010E94CB1A8C2F0AC09FB132
:100F90008FB1807F869586959370892B809501C04F
:100FA00080E0CF9108958098889A8198899A849852
:100FB0008C9A85988D9A86988E9A87988F9A08959C
:100FC00080E0089590916E0292FF0DC0282F287145
:100FD000283019F4877F846006C0282F24712430BC
:100FE00011F48B7F886093FF0DC0282F2871283162
:100FF00019F4877E846106C0282F2471243111F4EE
:101000008B7E886120916F0220FF0DC0382F3871D0
:10101000383019F4877F816006C0382F3171313044
:1010200011F48E7F886021FF0DC0282F2871283190
:1010300019F4877E816106C0282F2171213111F4B6
:101040008E7E886194FD877E08957E30A0F46630A0
:1010500090F494E5899FF001112486E0789FE00DDB
:10106000F11D1124E60FF11DEE0FFF1FEA5FFE4F89
:1010700085919491089580E090E00895CF93DF9357
:101080008238910569F1B0F48133910509F477C094
:1010900048F48932910509F469C08A32910509F44E
:1010A00073C092C08533910509F45BC08933910503
:1010B000B9F08AC0833E910591F138F4803E9105E4
:1010C000D1F0823E910531F17FC0863E9105D9F184
:1010D000873E9105E9F1843E910509F075C028C06D
:1010E00020916E0220FD5BC021FD59C020916F024E
:1010F00023FD61C069C080916E0280FD4AC080916D
:101100006F0280FF4CC080916E0284FD39C183EE76
:1011100090E038C180916E0282FF3EC0F4CF809192
:101120006E0282FD39C080916F0280FD38C0EBCF26
:1011300080916F0281FF39C080916E0284FD20C1D1
:1011400087EE90E01FC180916E0283FF2BC0F4CF29
:1011500080916E0283FD26C080916F0281FD25C0C3
:10116000EBCF80916E0285FD26C022C080916E0279
:1011700085FD1EC080916F0283FF1DC00AC0809153
:101180006E0286FD1BC01DC080916E0286FD19C0D7
:1011900015C089E390E0F6C082EE90E0F3C080EEE7
:1011A00090E0F0C086EE90E0EDC084EE90E0EAC002
:1011B00085E390E0E7C089E290E0E4C08AE290E055
:1011C000E1C081E390E0DEC0811532E5930708F0CD
:1011D0005FC0811541E5940728F0982F8827816F1B
:1011E000906AD0C0883E910568F5803E910508F070
:1011F000C9C0883A9105B8F4853A910548F0855AF6
:10120000E82FF0E0E75EFE4F808190E09064BAC086
:101210008130910509F4B1C008F4B2C08430910561
:1012200008F4AEC0AFC08F3B910508F0A9C0885A42
:10123000E82FF0E0EE0FFF1FE45EFE4F808191810A
:101240009464A0C0811520E59207A0F0AC01437022
:10125000552721E030E002C0220F331F4A95E2F704
:101260008695869540E2849FC0011124822B932BA2
:101270009D6888C0811530E4930718F09F70906ACC
:1012800081C09C013A9521153F4108F47BC078C08C
:10129000EC01C11586E5D807E8F5C11525E5D207AB
:1012A00048F08C2F0E94E2078F7190E0982F8827DA
:1012B000906268C0C11534E5D30728F09C2F8827B9
:1012C000846F906A5FC0AE01437055272C2F26951E
:1012D0002695C115D34578F481E090E002C0880FCF
:1012E000991F4A95E2F740E2249F90011124822B36
:1012F000932B9C6847C081E090E002C0880F991F43
:101300004A95E2F740E2249F90011124822B932B0F
:101310009A6838C0C1152AE5D207F8F4C11539E535
:10132000D30790F08C2F8F700E94E20794E0D6953F
:10133000C7959A95E1F7CF70D0E0DC2FCC27D06924
:101340009E01282BC9011EC0C11548E5D407C0F075
:101350009C2F8827806F906A15C0CE01905681150A
:10136000904270F48D2F8F710E94E207282F2F7109
:10137000CE0199279062922B05C081E090E002C0D7
:1013800080E090E0DF91CF91089568EE7EEF80E0FD
:1013900090E00E94C81B60E082E090E00E94AA1BDF
:1013A00060E083E090E00E94AA1B1092E50160E0FB
:1013B00084E090E00E94AA1B64E082E290E00E9438
:1013C000AA1B60E085E090E00E94AA1B60E086E036
:1013D00090E00E94AA1B6FEF87E090E00E94AA1B9A
:1013E00040E050E0BA0188E090E00E94BC1B60E061
:1013F0008DE090E00E94AA1B40E050E0BA0188E135
:1014000090E00E94BC1B60E087E190E00E94AA1B74
:1014100040E050E0BA018CE190E00E94BC1B60E02B
:1014200070E080E290E00E94C81B40E050E0BA010A
:1014300088E190E00E94BC1B1092240210922502C9
:10144000109226021092270284E080932402409199
:1014500024025091250260912602709127028FE0AC
:1014600090E00E94BC1B40E050E0BA0183E190E0B4
:101470000E94BC1B08958091E40181111092E40147
:10148000089580959091F00189238093F00108954B
:101490009091F0018091E301982B90936A018091E3
:1014A000E4018823D9F0892B80936A0180910A0195
:1014B000882331F080916E0287FF02C08EE101C067
:1014C00086E0ECE6F1E090E0815028F021912223C3
:1014D000D9F39F5FF9CF91110E943B0A40E250E09F
:1014E00063EC71E08AE691E00E946C1D892B21F18A
:1014F00080E2EAE6F1E0A3ECB1E001900D928A957A
:10150000E1F7E0916502F09166023097A9F08091D1
:101510000A01882359F080916E0287FF07C08091ED
:101520006A0180936B0186E080936A010280F381F7
:10153000E02D8AE691E0099508952091C2018095F9
:1015400082238093C201982F977099F430E0482F3E
:10155000082E000C550B2417350759F090916F0297
:1015600092FF07C08595859585950E94B9181092C0
:10157000C2010895CF93C0916F02C2FB992790F9E1
:10158000981791F080FBC2F9C0936F0260916E02D0
:1015900084E090E00E94AA1B6C2F82E290E00E94FF
:1015A000AA1B82E00E949D0ACF9108958091C101FB
:1015B00090919001891719F08F5F8770FBCF089584
:1015C0000F931F93CF93DF9380918F0182958F703C
:1015D00009F05AC080918C01882309F455C080918C
:1015E000C1011091900160918A0170918B01C091AD
:1015F0008D01D0918E0191E06F3F09F090E0292F8D
:1016000006E0811709F440C0209721F07F3F21F0C8
:1016100030E003C031E001C0322F90E030FD31C036
:10162000089FF001099FF00D1124DF01AF56BE4F56
:1016300011963C911197371324C03C91361321C069
:1016400012963C91129731111CC013964D915C91EA
:1016500014974C1B5D0B483C510598F480918F0109
:101660008F70806180938F01EA56FE4F80818F706A
:10167000806180838AE891E00E94AC020E94D60AD1
:1016800003C001968770BDCFDF91CF911F910F915D
:101690000895A1E1B0E0EFE4FBE00C94EA1A8C01BC
:1016A00085E0F801DE011D9601900D928A95E1F723
:1016B000F801E28090918A0160918B0140918D0147
:1016C00050918E014115510531F06F3F31F481E0A9
:1016D0009F3F19F403C081E001C080E0F82FF17052
:1016E0009F2E80FD1BC1F80130812181C380D480F1
:1016F0008AE8A82E81E0B82EF0908C01F601E41B58
:10170000F50BFF2009F4C7C080918F01E83CF1057B
:1017100008F092C0482F407F09F051C0621311C0F9
:1017200093130FC0FE2CE1100CC08F70806180936A
:101730008F01C5010E94AC0280918F01F801858361
:101740002AC1C114D10431F02F3F31F481E03F3F71
:1017500019F403C081E001C080E080FD03C081E096
:101760008E2502C080E090E0F82FF170FF2E80FF00
:101770001CC08091C1014091900156E0841709F48A
:10178000E8C090E0589FF001599FF00D1124EF56EA
:10179000FE4F6181261306C06081631303C062811E
:1017A000E61203C001968770E9CFFE2CEE2009F403
:1017B000F2C080918F01816080938F0149C06213D4
:1017C00006C0931304C0E11002C0F80186C0C8012E
:1017D0000E94D718882351F1EE2041F120918F010A
:1017E000822F82958F7090E0029774F080918A0129
:1017F00090918B0198878F831986DB86CA862C8708
:10180000CE0107960E94AC0286E0F801AAE8B1E09A
:1018100001900D928A95E1F70E94E00A0AC06217D2
:10182000C9F0C8010E94D71881111EC0C8010E94CA
:10183000AC02FF24F394AFC0482F407F81F78AE8C1
:1018400091E00E94AC0286E0F50111928A95E9F7D9
:10185000F12CA1C09313E5CFE110E3CFF80185830C
:10186000C8010E94AC0254C0EE2001F320918F0108
:10187000822F82958F7090E0029734F280918A01D6
:1018800090918B019A8389831B82DD82CC822E8387
:10189000CE010196B7CFE83CF105D0F5FE2CEE2045
:1018A00029F2621327C0931325C020918F0120FDD8
:1018B00018C0822F82958F70482F50E04115510536
:1018C00081F0F80125834F30510541F08F5F982F4B
:1018D0009295907F822F8F70892B8583C8010E94FB
:1018E000AC0286E0F801AAE8B1E001900D928A9579
:1018F000E1F751C0C8010E94D718811185CF8091AE
:101900008F01816080938F01C8010E94AC0243C0A7
:1019100086E0F50111928A95E9F73DC0EE2009F4C1
:1019200085CFC8010E94D718F82E882309F47ECFEE
:1019300086E0F801AAE8B1E001900D928A95E1F7FE
:1019400080918A0190918B010E9419180E94E00AEF
:1019500022C03D872E878D859E850E941918292FCC
:1019600022952F70223028F49F7039F0811105C024
:101970000BC0243028F49F7049F4805E883020F03A
:10198000C8010E94AC029F2CF92C05C0F80195817A
:10199000907F99F7F9CF8F2D6196EBE00C94061BA1
:1019A000A0E0B0E0E6EDFCE00C94ED1A80911701A8
:1019B00090911801892B91F08091E6018F5F8093BF
:1019C000E60181110BC00E94520690E0909318012D
:1019D00080931701892B11F40E94C90608E212E0D6
:1019E0007801D0E0C0E087E0C82ECC0E8C2F0E949A
:1019F00039078C2D0E9439078C2F0E949C078F730A
:101A0000F7019081891721F08083DD24D39401C0F0
:101A1000D12C8C2D0E949C078F73F7019781891719
:101A200019F0878381E001C080E0D82ADD290E9477
:101A30008D07CF5FFFEFEF1AFF0AC730A1F61092B4
:101A4000EB01C091EA01CC2309F4C4C00E947114D7
:101A50002091E8013091E901AC01421B530B9A013E
:101A60009093E9018093E8014F3F510509F018F484
:101A7000452B19F102C02FEF30E01092EA011092CD
:101A8000E701E0912202F0912302AF01425F5F4F34
:101A900090E030E08081882341F0281718F0108210
:101AA0009C2F03C0821B80833C2F3196E417F507DF
:101AB00089F73093EA019093E701DD2309F47BC0B5
:101AC000E0912202F09123028091EB019091EA01D2
:101AD000A9E3B2E0AF01425F5F4F6EE1E801288108
:101AE0003C91321779F0308131110CC060832C9316
:101AF00098819227282F30E0292B81E0232B09F4AD
:101B000080E091E0319611960F5F1F4FE417F507C3
:101B100029F78093EB019093EA01C091EB012091AA
:101B20001E028091ED019091EE012223C9F1892BD3
:101B300031F425982D9826982E9827982F988091E3
:101B4000ED019091EE019170892B79F48091EC0177
:101B5000882319F026982E9802C0269A2E9A9091E2
:101B6000EC0181E089278093EC018091ED01909157
:101B7000EE018130984750F010921E02809136029B
:101B80000E9482021092EE011092ED018091ED010F
:101B90009091EE0101969093EE018093ED011EC0AD
:101BA000892BE1F01092EE011092ED018091360246
:101BB0000E94820213C081E09091E701992309F409
:101BC000ACCF81117DCF0E9471149093E901809375
:101BD000E80176CFD111F7CF80E0EECF8C2FCDB7D3
:101BE000DEB7E8E00C94091B8091160287FF11C054
:101BF0008091E80082FD05C0809121028111F8CF1B
:101C000011C08091E8008B770BC08091210288235E
:101C100049F08091E80080FFF8CF8091E8008E774E
:101C20008093E8000895982F973068F59093E90025
:101C3000981739F07091EC002091ED005091F00070
:101C400003C0242F762F50E021FD02C09F5FECCF10
:101C50003091EB003E7F3093EB003091ED003D7F03
:101C60003093ED003091EB0031603093EB007093D6
:101C7000EC002093ED005093F0002091EE0027FD42
:101C8000E5CF80E008958F708093E90081E00895AA
:101C900020911C0230911D022617370748F061156C
:101CA000710539F42091E8002E772093E80001C0F7
:101CB000B901FC0120E06115710579F180912102E3
:101CC0008823F1F18530F1F18091E80083FD3CC07B
:101CD0008091E80082FD2EC08091E80080FFEBCF6C
:101CE0002091F3008091F20090E0922B6115710534
:101CF00051F08830910538F421912093F100615022
:101D000071090196F3CF21E0089709F020E0809156
:101D1000E8008E778093E800CECF2111CFCF0AC0A4
:101D200080912102882361F0853061F08091E80084
:101D300083FD0AC08091E80082FFF2CF80E0089521
:101D400082E0089583E0089581E008950895BC013C
:101D500084E00E9412140895BC0183E00E941214D2
:101D60000895AAE2B0E0E7EBFEE00C94F21AE6E197
:101D7000F2E08EE192E02091F10021938E179F070F
:101D8000D1F780911702833009F463C030F48130B9
:101D900071F0823009F49FC0B6C08A3009F48BC05C
:101DA0008B3009F46EC0893009F0ADC020C080913D
:101DB0001602813A09F0A7C08091E800877F8093DE
:101DC000E80080911A0290911B02892B21F460E2B5
:101DD00083EF91E003C060E080E090E070E00E945B
:101DE000480E8091E8008B778093E8008CC080914A
:101DF0001602813209F087C080911A0290911B026D
:101E0000009719F0029709F07EC08091E800877F63
:101E10008093E8008091E80082FD05C08091210256
:101E20008111F8CF70C02091F3008091F20090E012
:101E3000922B029731F48091F100813011F08630BD
:101E400021F48091F1008093F2018091E8008B777A
:101E500056C080911602813A09F055C080911A024D
:101E600090911B02892B09F04EC08091E800877F7A
:101E70008093E8008091E80080FFFCCF80910A0108
:101E800039C0809116028132F1F580911A02909149
:101E90001B02892BC1F58091E800877F8093E800C1
:101EA0000E94F40D8091180280930A011092F001B3
:101EB0000E940E1928C080911602813221F580916E
:101EC000E800877F8093E8000E94F40D809119025A
:101ED0008093F10118C080911602813AA1F480919B
:101EE000E800877F8093E8008091E80080FFFCCFC6
:101EF0008091F1018093F1008091E8008E778093CA
:101F0000E8000E94F40D8091E80083FFDFC180911A
:101F1000160290911702492F50E04A30510508F0FF
:101F2000D5C1FA01E059FF4F0C94451C803821F0CF
:101F3000823809F0CBC108C080911302909114023D
:101F4000992389F082600FC080911A028F708730C8
:101F500008F0BCC18093E9008091EB0085FB8827E5
:101F600080F91092E9009091E800977F9093E80043
:101F70008093F1001092F10070C1282F2D7F09F09D
:101F8000A5C1882319F0823061F0A0C180911802A8
:101F9000813009F09BC1933009F080E080931402F6
:101FA0002EC08091180281112AC080911A028F7070
:101FB0002FEF280F263008F089C18093E900209187
:101FC000EB0020FF1CC0933021F48091EB00806275
:101FD00014C09091EB0090619093EB0021E030E011
:101FE000A90102C0440F551F8A95E2F74093EA0009
:101FF0001092EA008091EB0088608093EB001092D1
:10200000E9008091E800877F8093E8000E94F40D4A
:102010005DC181115BC1109118021F778091E300AF
:102020008078812B8093E3008091E800877F809304
:10203000E8000E94F40D8091E80080FFFCCF8091C1
:10204000E30080688093E300111102C082E001C0C8
:1020500083E0809321023AC18058823008F036C173
:1020600020911802309119022C3D53E0350779F583
:1020700083E08A838AE289834FB7F894DE0113965E
:1020800020E03EE051E2E32FF0E050935700E4916E
:1020900020FF03C0E295EF703F5FEF708E2F90E05E
:1020A000EA3010F0C79601C0C0968D939D932F5FC4
:1020B000243149F74FBF8091E800877F8093E80083
:1020C0006AE270E0CE0101960E94480EB4C0809191
:1020D0001A0290911B02432F552743305105A9F056
:1020E00068F44130510509F400C14230510509F04E
:1020F000EDC08BE590E0EDE7F2E04BC041325105D9
:1021000029F14232510589F1E1C0C9019927813095
:102110009105A1F058F0029709F0D8C0EAEEF2E07C
:10212000E4918E2F90E0EAEEF2E030C0ECE2F3E0D2
:10213000E4918E2F90E0ECE2F3E028C0E2E0F3E0DF
:10214000E4918E2F90E0E2E0F3E020C0833091052F
:1021500008F0BCC0880F991FFC01ED5AFE4F01909A
:10216000F081E02D89E090E014C08330910508F003
:10217000ADC0FC01EE0FFF1FE35BFE4F0190F0814D
:10218000E02DDC01A65BBE4F8C9190E0009709F436
:102190009DC02091E800277F2093E80020911C0239
:1021A00030911D022817390708F4C90140E0009753
:1021B00089F120912102222309F43DC02530D9F173
:1021C0002091E80023FD37C02091E80022FD2FC0B8
:1021D0002091E80020FFEBCF4091F3002091F20026
:1021E00030E0342B009759F02830310540F4449109
:1021F0004093F100319601972F5F3F4FF3CF41E0BD
:102200002830310509F040E02091E8002E77209336
:10221000E800CDCF4111CDCF0AC0809121028823A3
:1022200051F0853041F08091E80083FD04C0809139
:10223000E80082FFF2CF8091E8008B778093E8007E
:1022400045C0803809F042C08091E800877F8093C4
:10225000E800809115028093F1008091E8008E776C
:10226000D3CE811133C08091180290911902992721
:10227000029764F58091E800877F8093E8001091D1
:102280001802109315020E94F40D111106C08091DE
:10229000E30087FD02C081E001C084E08093210259
:1022A00042E061EC81E00E94130E42E261EC84E0C6
:1022B0000E94130E42E261EC82E00E94130E42E2A1
:1022C00060EC83E00E94130E809121028091E8006F
:1022D00083FF10C08091E800877F8093E8008091A1
:1022E000EB0080628093EB0005C082E190E0E8EDB6
:1022F000F2E04FCFAA96E3E00C940E1B1F920F92D0
:102300000FB60F9211242F933F934F935F936F93C8
:102310007F938F939F93AF93BF93CF93DF93EF936D
:10232000FF93C091E900CF708091EC00D82FD1705D
:1023300080FDD0E81092E9008091F000877F8093C3
:10234000F00078940E94B10E1092E9008091F000A4
:1023500088608093F000CD2BCF70C093E900FF918F
:10236000EF91DF91CF91BF91AF919F918F917F912D
:102370006F915F914F913F912F910F900FBE0F90F2
:102380001F901895E8EDF0E080818E7F8083109299
:10239000E2001092DA001092E100A0EEB0E08C9121
:1023A00081608C9380818F77808319BCA7EDB0E02A
:1023B0008C918E7F8C9380818F7E80831092EF0131
:1023C0000895A0E0B0E0E7EEF1E10C94ED1AC8ED5D
:1023D000D0E088818F7E8883E7EDF0E080818160A6
:1023E000808384E082BF81E08093EF0188818E7FCB
:1023F000888302EE10E0F80110821092DA0081EE7C
:10240000C82ED12CF601108288818F77888388812D
:102410008068888388818F7D888319BC109221020F
:1024200010921502109214021092130290EEE92EEF
:10243000F12CF70180818B7F808388818160888384
:1024400042E060E080E00E94130EF60180818E7F02
:102450008083F801808181608083808188608083AF
:10246000F70180818E7F8083888180618883CDB7EA
:10247000DEB7E8E00C94091B1F920F920FB60F9283
:1024800011242F933F934F935F936F937F938F9379
:102490009F93AF93BF93EF93FF938091E10082FFEF
:1024A00009C08091E20082FF05C08091E1008B7F2E
:1024B0008093E1008091DA0080FF2AC08091D800EB
:1024C00080FF26C08091DA008E7F8093DA008091B1
:1024D000D90080FF18C080E189BD82E189BD09B4BF
:1024E00000FEFDCF81E0809321028091EF018111F8
:1024F0000FC00E94C2110E94E1118091E20084602D
:102500008093E20005C019BC109221021092EF01E5
:102510008091E10080FF17C08091E20080FF13C02E
:102520008091E2008E7F8093E2008091E2008061E2
:102530008093E2008091D80080628093D80019BC1B
:1025400085E0809321028091E10084FF30C080917A
:10255000E20084FF2CC080E189BD82E189BD09B41D
:1025600000FEFDCF8091D8008F7D8093D8008091B0
:10257000E1008F7E8093E1008091E2008F7E809366
:10258000E2008091E20081608093E2008091150278
:10259000882311F084E007C08091E30087FD02C02A
:1025A00081E001C083E0809321028091210280912B
:1025B000E10083FF27C08091E20083FF23C0809168
:1025C000E100877F8093E10082E0809321021092F6
:1025D00015028091E1008E7F8093E1008091E200FE
:1025E0008E7F8093E2008091E20080618093E20020
:1025F00042E060E080E00E94130E8091F00088606D
:102600008093F000FF91EF91BF91AF919F918F91D7
:102610007F916F915F914F913F912F910F900FBEDE
:102620000F901F9018952091E4003091E50095E6F9
:102630004091EC00842F817040FF23C08091E8001E
:1026400080FD1DC080912102882399F0853099F08A
:102650008091EB0085FD11C04091E4005091E500B0
:102660002417350729F3915011F09A01E1CF84E046
:10267000089582E0089583E0089581E0089580E060
:1026800008954091E80042FFDDCF0895EF92FF9258
:102690000F931F93CF93DF937C018B010E94131341
:1026A000811119C0E70101151105A1F08091E80021
:1026B00085FD0AC08091E8008E778093E8000E9433
:1026C0001313882381F307C089918093F10001508F
:1026D0001109E9CF80E0CDB7DEB7E6E00C940B1B23
:1026E000CF9320912102243029F5C091E900CF70C9
:1026F0003091EC00232F217030FD20E8C22B22E026
:102700002093E9002091E80020FF11C040E050E054
:1027100060E270E00E944613882321F010921E02AE
:1027200010921F028091E8008E778093E800CF70AE
:10273000C093E900CF91089508958091F201089522
:10274000CF93DF9320910A01222339F020916E026A
:1027500027FF03C060E224E002C068E021E020938C
:10276000E9002FEF3091E800215035FD06C035ED2E
:102770003A95F1F700002111F5CF2091E80025FFEF
:102780001DC0EC0180910A01811105C040E050E0BC
:1027900068E070E003C070E040E050E0CE010E94CD
:1027A00046138091E8008E778093E80080E2FE0176
:1027B000A3EFB1E001900D928A95E1F7DF91CF91FF
:1027C0000895CF93DF930E94661B66E070E00E943D
:1027D000311CD82F0E94661B6EE070E00E94311CF5
:1027E000C82F6D2F782F80E00E9425080497C59789
:1027F00018F48D2F9C2F02C00E94E113DF91CF911E
:102800000895A0E2B0E0E7E0F4E10C94F31A9FEF42
:1028100099838A83CE0101960E947013A096E2E00C
:102820000C940F1B8093700270937202609371027C
:10283000809121028430F9F48093E9008FEF909128
:10284000E800815095FD06C095ED9A95F1F70000DE
:102850008111F5CF8091E80085FF0DC040E050E088
:1028600063E070E080E792E00E9446138091E80008
:102870008E778093E800089578941F920F920FB698
:102880000F9211248F939F93AF93BF9380916A020D
:1028900090916B02A0916C02B0916D020196A11D06
:1028A000B11D80936A0290936B02A0936C02B09367
:1028B0006D02BF91AF919F918F910F900FBE0F90BE
:1028C0001F9018959C014FB7F89480916A029091DF
:1028D0006B02A0916C02B0916D024FBF821B930BF3
:1028E00008952FB7F89480916A0290916B02A0919D
:1028F0006C02B0916D022FBF08951F920F920FB618
:102900000F9211248F939F93AF93BF93809169028D
:10291000811113C080916A0290916B02A0916C02A8
:10292000B0916D024196A11DB11D80936A029093F2
:102930006B02A0936C02B0936D02BF91AF919F9117
:102940008F910F900FBE0F901F90189520910A0144
:102950002223C9F020916E0227FF15C0262F26954D
:10296000269526952E31C8F4FC01E20FF11D677003
:1029700081E090E001C0880F6A95EAF78095928126
:10298000892382830895FC0106962281621301C087
:1029900012823196E817F907C1F70895209167026E
:1029A000309168022817390771F09093680280937C
:1029B0006702E0916502F0916602309721F0008491
:1029C000F185E02D0995089520916302309164020C
:1029D0002817390771F09093640280936302E091A5
:1029E0006502F0916602309721F00680F781E02DB4
:1029F00009950895E0916502F0916602309729F0FB
:102A00000190F081E02D0995089580E00895ACE5EE
:102A1000B0E0EDE0F5E10C94E61A85B7806885BF7B
:102A200085B7806885BF84B7877F84BF0FB6F89469
:102A3000A89580916000886180936000109260008A
:102A40000FBE90E080E80FB6F894809361009093F9
:102A500061000FBE80EE97E090936701809366015E
:102A60000E94C2110E94E1118091E2008460809373
:102A7000E2007894809121028823A1F01091E9006E
:102A80001F709091EC00892F817090FD80E8182BC9
:102A90001092E9008091E80083FD0E94B10E1F7042
:102AA0001093E90082E084BD93E095BD9AEF97BD55
:102AB00080936E000E94520690E0909318018093DC
:102AC00017010E948D070E94D307E8E2F2E0A9E314
:102AD000B2E011921D9222E0E633F207D1F78EE0C8
:102AE00090E00E944B1C8093220290932302FC01F1
:102AF0000E961192E817F907E1F789EA80938000B2
:102B000089E08093810024982C983F988AB18F7C2B
:102B10008AB96E98479A8BB180638BB9769A8FE0A9
:102B200090E00E948E1B6093240270932502809394
:102B300026029093270267708FEF689FB0011124DF
:102B4000759567957595679577277093890060935C
:102B5000880070938B0060938A0070938D0060935F
:102B60008C000E94C90680E090E00E94941B883E81
:102B70009E4F11F00E94C50982E090E00E94861BE2
:102B80008093470284E090E00E94861B182F82E227
:102B900090E00E94861B212F30E0382B30936F028B
:102BA00020936E0283E090E00E94861B0E94D21860
:102BB000809136020E9482028BE091E0909366023F
:102BC0008093650278E1E72EF12C07E412E0809112
:102BD0002102853009F056C040E4B42E50E1C52EE4
:102BE00062E1D62E80912102853009F045C08091A6
:102BF0002102843009F1109269020FB6F894A89569
:102C0000E09260000FBEB092600083B7817F846065
:102C100083BF83B7816083BF7894889583B78E7FA5
:102C200083BF0FB6F894A895809160008861809367
:102C30006000109260000FBE80911402882391F210
:102C40000E94520690E090931801809317010E9411
:102C50008D070E94D307E9E3F2E011920E171F07D8
:102C6000E1F70E94D00CE9E3F2E0819181118DC17E
:102C70000E171F07D1F7B6CF1092F0010E940E1960
:102C80000E94FA140E94D00C38E4A32E32E0B32E36
:102C9000A9E3B2E0F50191918D91892722E0E63513
:102CA000F20719F08823B9F332C0811130C00E94B5
:102CB00071146C018091370290913802C816D906C0
:102CC00009F474C08FEF64968FAF649765968FAFE9
:102CD000659766961FAE66970E9471148160782F83
:102CE00068969FAF8EAF689764964FAD6497659670
:102CF0005FAD659766966FAD669768968FAD68977E
:102D00000E94CF01D0923802C09237024FC029E30F
:102D1000822E22E0922ED12CF40151904F01F50128
:102D20006080652489F1C12C77247394862D8721D6
:102D300021F16996CFAE69976A96DFAE6A9791E006
:102D4000852D872109F490E06B969FAF6B970E94C9
:102D500071148160782F6D969FAF8EAF6D976996D5
:102D60004FAD69976A965FAD6A976B966FAD6B973B
:102D70006D968FAD6D970E94CF01C394770CF6E0EE
:102D8000CF12D4CFF5015082D394FFEFAF1ABF0A10
:102D90002EE0D212C1CF8FB7F89440916A025091C1
:102DA0006B0260916C0270916D028FBF0E94FA14E9
:102DB00090915602891769F0809356028FB7F89464
:102DC00040916A0250916B0260916C0270916D02A9
:102DD0008FBF80912102843009F0F9CE83E0809387
:102DE000E9008091E80082FFF2CE8091E80085FF43
:102DF00024C00E94131381111EC090E2C92ED12C51
:102E00005E0181E2A80EB11C09C08091F100F501BC
:102E100081935F01F1E0CF1AD10869F08091E80059
:102E200085FDF3CF8091E8008B778093E8000E94C6
:102E30001313882399F391E001C090E08091E8009A
:102E40008B778093E800992309F4C1CEE9A18E2FF6
:102E500090E08930910508F094C0FC01E658FF4FDE
:102E60000C94451C8BA19AA1909357028093580211
:102E70008DA19CA19093590280935A028FA19EA18B
:102E800090935B0280935C0242E150E063E270E069
:102E9000CE018F5B9F4F0E94761B84E0898381E087
:102EA00080931F028EEF8A8310921E020CC019823B
:102EB0008CE0E9E5F1E0DE01129601900D928A9531
:102EC000E1F78EEF8D87CE0101960E9470137FCEC1
:102ED0008DE5C82E82E0D82E0E94E113F601819381
:102EE00091936F01F3E6CF16F2E0DF06A9F781E0D8
:102EF000898390915D029A8390915E029B83909169
:102F00005F029C83909160029D83909161029E83F9
:102F1000909162029F839EEF988780931E02CE015C
:102F200001960E94701342E150E063E270E0CE012E
:102F300001960E94761BFE01319682E183301CF0DF
:102F40009189928B01C0128A815031978F3FB1F7DE
:102F500042E150E063E270E0CE0101960E949A1BCC
:102F600036CE80911F02882309F431CE80E00E9482
:102F70008F188AA10E94C6182ACE85E003C084E07B
:102F800001C08FEF0E94011422CEC9BCD9BC09B484
:102F900000FEFDCF8091D8008F7D8093D800809176
:102FA000E00082608093E0008091E00081FDFCCF32
:102FB0001092F0010E940E1915CE80E090E00E9460
:102FC000E41480E090E00E94CE141092E3010E948D
:102FD000480A0895CF92DF92FF920F931F93CF93E9
:102FE000DF936C01009136028091E501082BC7E068
:102FF000D0E010E0C8010C2E02C0959587950A9488
:10300000E2F780FD04C02197A8F7F12C09C0FC2E3F
:10301000B6018C2F0E9425080E943E08019799F363
:103020008F2DDF91CF911F910F91FF90DF90CF9067
:103030000895CF93DF93EC010E94EA17BE010E942E
:1030400025080E943E08DF91CF910895292F9E30D8
:1030500078F5863068F590E036E0239F800D911D6D
:103060001124682F677023E0969587952A95E1F7DC
:10307000FC01EE0FFF1FE80FF91FED58FD4F40E078
:1030800050E080E0219130E0062E02C03695279571
:103090000A94E2F721703327042E01C0220F0A940C
:1030A000EAF7822B4F5F5F4F4330510559F7089580
:1030B00080E00895292F9E3088F5863078F590E0DD
:1030C00036E0239F800D911D1124282F277051E099
:1030D00001C0550F2A95EAF723E0969587952A9522
:1030E000E1F7FC01EE0FFF1FE80FF91FED58FD4F50
:1030F00020E030E070E04081CB01022E02C09695C6
:1031000087950A94E2F78170819584278523842727
:1031100081932F5F3F4F2330310569F70895A0E277
:10312000B0E0E5E9F8E10C94F21A0E948202182F4F
:1031300080911F028823A9F02FEF80E792E02150B1
:1031400080409040E1F700C0000085E08983812F36
:103150000E946E028A838EEF8B83CE0101960E94BD
:103160007013109336020E94DD17A096E3E00C94D2
:103170000E1B21E030E001C0220F8A95EAF720956E
:103180008091360282230E948F18089521E030E05A
:1031900001C0220F8A95EAF780913602822B0E94A5
:1031A0008F1808958093E5010E94DD170895CF934D
:1031B000FC018081918123813481232B31F09F3F59
:1031C00031F491E08F3F19F403C091E001C090E029
:1031D000C92FC17090FD1CC0808191810E94191877
:1031E00092959F70963079F010F4925001C09A50E9
:1031F000923088F4803F71F018F4883E60F40AC081
:10320000843F49F407C0883E28F0813F21F402C082
:10321000C0E001C0C1E08C2FCF91089580910A01D8
:10322000882331F080916E0287FF02C08EE101C0D9
:1032300086E0ECE6F1E0DF011D928A95E9F70E9455
:10324000DD170895882321F00E94410A0E94480A50
:103250000895882339F09091F001892B8093F00133
:103260000E94480A0895882349F1682F8CEF860F41
:10327000813A28F48AE691E00E94A6140CC080E20C
:10328000860F883058F4677081E001C0880F6A9516
:10329000EAF70E94410A0E94480A08958BE5860FCA
:1032A000833028F480E090E00E94E4140895685A86
:1032B000673120F480E090E00E94CE140895CF930F
:1032C000882309F49AC0C82F8CEF8C0F813A08F03C
:1032D0005EC080910A018823E1F080916E0287FF31
:1032E00018C0EC2FE695E695E695F0E0E659FE4F1E
:1032F0008281282F30E04C2F477081E090E002C09F
:10330000880F991F4A95E2F782239323892B59F45A
:1033100011C0ECE6F1E08191C81729F081E0E237B5
:10332000F807C9F707C06C2F8AE691E00E94A6143F
:103330000E94480A80910A018823C9F080916E0298
:1033400087FF15C0AC2FA695A695A695B0E0A65907
:10335000BE4FC77081E090E001C0880FCA95EAF7C0
:1033600012969C911297892B12968C9320C0ACE6F2
:10337000B1E0EFEF80E09D91C917C9F0EF3F19F47C
:10338000911101C0E82F8F5F8630A9F72DC080E230
:103390008C0F883078F4C77081E090E001C0880F0E
:1033A000CA95EAF79091F001892B8093F0010E9471
:1033B000480A23C0EBE5EC0FE33040F4F0E0E75EB1
:1033C000FE4F808190E00E94E41417C0C85AC731B4
:1033D000A0F4EC2FF0E0EE0FFF1FE45EFE4F8081C3
:1033E00091810E94CE1409C0EF3F09F30E2E000C0C
:1033F000FF0BE659FE4FC283DACFCF9108951092AA
:10340000B9008CE08093B8000895A0E0B0E0EBE054
:10341000FAE10C94EA1AB82EEB010E9471146C01C7
:10342000C431D10558F0CF3F8FEFD80759F0CE0106
:1034300064E170E00E94CF1A7B0107C0EE24E394A0
:10344000F12C03C025E0E22EF12C84E8A82E94EAAA
:10345000992E1092BC009092BC000E9471148C01B5
:103460008091BC0087FD07C0C8010E946214E81665
:10347000F906B0F729C08091B900887F883041F003
:103480008091B900887F803119F00FEF1FEF1EC0C7
:10349000B092BB00A092BC000E9471148C0180917C
:1034A000BC0087FD07C0C8010E946214E816F90637
:1034B000B0F70AC08091B900887F883111F080345C
:1034C00021F700E010E00EC00EEF1FEFCF3F8FEFAF
:1034D000D80709F4BECFC6010E946214C817D907E5
:1034E00008F0B7CFC801CDB7DEB7EBE00C94061BF0
:1034F0000F931F93CF93DF93EB018093BB0084E87E
:103500008093BC000E9471148C018091BC0087FDE7
:103510000DC0CF3F8FEFD807C1F3C8010E946214DE
:10352000C817D90790F78EEF9FEF0CC02091B90014
:10353000287F81E090E0283211F480E090E09195BE
:1035400081959109DF91CF911F910F9108950F936C
:103550001F93CF93DF93EC0184E88093BC000E941B
:1035600071148C018091BC0087FD0DC0CF3F8FEF9F
:10357000D807C1F3C8010E946214C817D90790F791
:103580008EEF9FEF03C08091BB0090E0DF91CF9161
:103590001F910F91089584E98093BC000895AA1BA0
:1035A000BB1B51E107C0AA1FBB1FA617B70710F02E
:1035B000A61BB70B881F991F5A95A9F78095909560
:1035C000BC01CD0108952F923F924F925F926F926E
:1035D0007F928F929F92AF92BF92CF92DF92EF92A3
:1035E000FF920F931F93CF93DF93CDB7DEB7CA1B24
:1035F000DB0B0FB6F894DEBF0FBECDBF09942A884F
:10360000398848885F846E847D848C849B84AA84F6
:10361000B984C884DF80EE80FD800C811B81AA8183
:10362000B981CE0FD11D0FB6F894DEBF0FBECDBF4E
:10363000ED0108958F929F92AF92BF92CF92DF9249
:10364000EF92FF92CF93DF93EC01688179818A81B9
:103650009B81611571058105910521F464E279ED85
:103660008BE597E02DE133EF41E050E00E94CE1B67
:1036700049015A019B01AC01A7EAB1E40E94ED1B8C
:103680006B017C01ACEEB4EFA50194010E94FB1B21
:10369000DC01CB018C0D9D1DAE1DBF1DB7FF03C00E
:1036A0000197A109B04888839983AA83BB839F7738
:1036B000DF91CF91FF90EF90DF90CF90BF90AF90D0
:1036C0009F908F9008950E941A1B089580E091E0CA
:1036D0000E941A1B0895A0E0B0E08093000190932F
:1036E0000101A0930201B09303010895DC01CB0115
:1036F000FC01F999FECF06C0F2BDE1BDF89A319602
:1037000000B40D9241505040B8F70895F999FECF9A
:1037100092BD81BDF89A992780B50895A6E1B0E0E1
:1037200044E050E00C94781BA8E1B0E042E050E0A7
:103730000C94781BDC01A40FB51F4150504048F099
:10374000CB01840F951F2E910E94AB1B415050401E
:10375000D0F70895262FF999FECF92BD81BDF89A32
:10376000019700B4021639F01FBA20BD0FB6F894C5
:10377000FA9AF99A0FBE08950396272F0E94AB1B61
:103780000E94AA1B252F0E94AB1B242F0C94AB1B5D
:103790000196272F0E94AB1B0C94AA1B052E97FBAA
:1037A0001EF400940E94E51B57FD07D00E94001CE8
:1037B00007FC03D04EF40C94E51B509540953095D2
:1037C00021953F4F4F4F5F4F08959095809570958D
:1037D00061957F4F8F4F9F4F08950E94221CA59F98
:1037E000900DB49F900DA49F800D911D11240895FC
:1037F000B7FF0C94ED1B0E94ED1B821B930B0895E9
:10380000A1E21A2EAA1BBB1BFD010DC0AA1FBB1FE4
:10381000EE1FFF1FA217B307E407F50720F0A21B56
:10382000B30BE40BF50B661F771F881F991F1A94C3
:1038300069F760957095809590959B01AC01BD01ED
:10384000CF010895A29FB001B39FC001A39F700D47
:10385000811D1124911DB29F700D811D1124911D98
:10386000089597FB072E16F4009407D077FD09D032
:103870000E94CF1A07FC05D03EF4909581959F4F8A
:103880000895709561957F4F0895EE0FFF1F059085
:10389000F491E02D09940F931F93CF93DF9382301F
:1038A000910510F482E090E0E0919602F091970289
:1038B00020E030E0A0E0B0E0309719F14081518184
:1038C0000281138148175907C8F08417950769F4D6
:1038D000109731F012960C93129713961C9327C0F1
:1038E000009396021093970222C02115310519F01A
:1038F0004217530718F49A01BD01EF01DF01F801E7
:10390000DBCF21153105F9F0281B390B24303105A7
:1039100080F48A819B816115710521F0FB019383FD
:10392000828304C09093970280939602FE013296A0
:1039300044C0FE01E20FF31F81939193225031099D
:10394000398328833AC02091940230919502232B29
:1039500041F42091060130910701309395022093A4
:10396000940220910401309105012115310541F4A3
:103970002DB73EB74091080150910901241B350B2A
:10398000E0919402F0919502E217F307A0F42E1B48
:103990003F0B2817390778F0AC014E5F5F4F2417B3
:1039A000350748F04E0F5F1F5093950240939402E5
:1039B0008193919302C0E0E0F0E0CF01DF91CF91DD
:1039C0001F910F910895CF93DF93009709F481C061
:1039D000FC01329713821282A0919602B091970255
:1039E000109781F420813181820F931F20919402DE
:1039F000309195022817390751F5F0939502E0931D
:103A0000940267C0ED0120E030E0CE17DF0740F4FC
:103A10004A815B819E0141155105F1F0EA01F5CF24
:103A2000D383C28340815181840F951FC817D90762
:103A300059F488819981840F951F02969183808320
:103A40008A819B81938382832115310529F4F09328
:103A50009702E09396023DC0E901FB83EA83499116
:103A60005991C40FD51FEC17FD0761F48081918136
:103A7000840F951F0296E90199838883828193813F
:103A80009B838A83E0E0F0E012968D919C911397DE
:103A9000009719F0FD01DC01F7CF8D919C911197F2
:103AA0009D012E5F3F4F820F931F20919402309112
:103AB00095022817390769F4309729F41092970274
:103AC0001092960202C013821282B0939502A093C4
:103AD0009402DF91CF910895FB01DC0104C08D9128
:103AE0000190801921F441505040C8F7881B990B70
:063AF0000895F894FFCFD9
:103AF60001000000000098022000019D13A0139C05
:103B060013AC0EA70EA60E2000818283E200E90008
:103B1600EA00B500B600B700CD008301CC008A01EB
:103B26009201940121022302240225022602270281
:103B36002A02B300B4006F00700040226D3D021BE4
:103B460002AE018F02A802C802504D5A525A2F796E
:063B560052335A3000005A
:00000001FF
